{
  "contractName": "Migrations",
  "abi": [
    {
      "inputs": [
        {
          "internalType": "address payable",
          "name": "_wallet",
          "type": "address"
        }
      ],
      "stateMutability": "nonpayable",
      "type": "constructor"
    },
    {
      "inputs": [
        {
          "internalType": "address",
          "name": "",
          "type": "address"
        }
      ],
      "name": "balances",
      "outputs": [
        {
          "internalType": "uint256",
          "name": "",
          "type": "uint256"
        }
      ],
      "stateMutability": "view",
      "type": "function"
    },
    {
      "inputs": [],
      "name": "buyToken",
      "outputs": [],
      "stateMutability": "payable",
      "type": "function"
    }
  ],
  "bytecode": "0x608060405234801561001057600080fd5b506040516102553803806102558339818101604052602081101561003357600080fd5b810190808051906020019092919050505080600160006101000a81548173ffffffffffffffffffffffffffffffffffffffff021916908373ffffffffffffffffffffffffffffffffffffffff160217905550506101c0806100956000396000f3fe608060405260043610610046576000357c01000000000000000000000000000000000000000000000000000000009004806327e235e31461004b578063a4821719146100b0575b600080fd5b34801561005757600080fd5b5061009a6004803603602081101561006e57600080fd5b81019080803573ffffffffffffffffffffffffffffffffffffffff1690602001909291905050506100ba565b6040518082815260200191505060405180910390f35b6100b86100d2565b005b60006020528060005260406000206000915090505481565b60016000803373ffffffffffffffffffffffffffffffffffffffff1673ffffffffffffffffffffffffffffffffffffffff16815260200190815260200160002060008282540192505081905550600160009054906101000a900473ffffffffffffffffffffffffffffffffffffffff1673ffffffffffffffffffffffffffffffffffffffff166108fc349081150290604051600060405180830381858888f19350505050158015610187573d6000803e3d6000fd5b5056fea26469706673582212208a89071105a4c7c95be01896f4b5a688dec084dc07e78a5b366182def056c4a164736f6c63430006040033",
  "source": "pragma solidity ^0.6.4;\n\n\ncontract Migrations {\n    mapping(address => uint256) public balances;\n    address payable wallet;\n\n    constructor(address payable _wallet) public {\n        wallet = _wallet;\n    }\n\n    function buyToken() public payable {\n        balances[msg.sender] += 1;\n        wallet.transfer(msg.value);\n    }\n}\n",
  "sourcePath": "/Users/yuto.watanabe/Git/study-solidity/src/contracts/Migrations.sol",
  "compiler": {
    "name": "solc",
    "version": "0.6.4+commit.1dca32f3.Linux.g++"
  },
  "schemaVersion": "3.1.0",
  "updatedAt": "2020-05-22T02:51:12.243Z",
  "devdoc": {
    "methods": {}
  },
  "userdoc": {
    "methods": {}
  }
}